{
  "_format": "hh-sol-artifact-1",
  "contractName": "MerkleVault",
  "sourceName": "contracts/MerkleVault.sol",
  "abi": [
    {
      "inputs": [],
      "stateMutability": "nonpayable",
      "type": "constructor"
    },
    {
      "anonymous": false,
      "inputs": [
        {
          "indexed": false,
          "internalType": "uint256",
          "name": "amount",
          "type": "uint256"
        }
      ],
      "name": "ETHReceived",
      "type": "event"
    },
    {
      "anonymous": false,
      "inputs": [
        {
          "indexed": false,
          "internalType": "uint256",
          "name": "newVersion",
          "type": "uint256"
        }
      ],
      "name": "MerkleTreeUpdated",
      "type": "event"
    },
    {
      "anonymous": false,
      "inputs": [
        {
          "indexed": true,
          "internalType": "address",
          "name": "previousOwner",
          "type": "address"
        },
        {
          "indexed": true,
          "internalType": "address",
          "name": "newOwner",
          "type": "address"
        }
      ],
      "name": "OwnershipTransferred",
      "type": "event"
    },
    {
      "anonymous": false,
      "inputs": [
        {
          "indexed": false,
          "internalType": "address",
          "name": "account",
          "type": "address"
        }
      ],
      "name": "Paused",
      "type": "event"
    },
    {
      "anonymous": false,
      "inputs": [
        {
          "indexed": true,
          "internalType": "address",
          "name": "token",
          "type": "address"
        },
        {
          "indexed": false,
          "internalType": "uint256",
          "name": "amount",
          "type": "uint256"
        }
      ],
      "name": "TokensClaimed",
      "type": "event"
    },
    {
      "anonymous": false,
      "inputs": [
        {
          "indexed": false,
          "internalType": "address",
          "name": "account",
          "type": "address"
        }
      ],
      "name": "Unpaused",
      "type": "event"
    },
    {
      "inputs": [
        {
          "internalType": "uint256",
          "name": "_index",
          "type": "uint256"
        },
        {
          "internalType": "address",
          "name": "_token",
          "type": "address"
        },
        {
          "internalType": "uint256",
          "name": "_amount",
          "type": "uint256"
        },
        {
          "internalType": "bytes32[]",
          "name": "_merkleProof",
          "type": "bytes32[]"
        }
      ],
      "name": "claim",
      "outputs": [],
      "stateMutability": "nonpayable",
      "type": "function"
    },
    {
      "inputs": [
        {
          "internalType": "address",
          "name": "",
          "type": "address"
        },
        {
          "internalType": "uint256",
          "name": "",
          "type": "uint256"
        }
      ],
      "name": "fundsClaimed",
      "outputs": [
        {
          "internalType": "bool",
          "name": "",
          "type": "bool"
        }
      ],
      "stateMutability": "view",
      "type": "function"
    },
    {
      "inputs": [
        {
          "internalType": "uint256",
          "name": "_index",
          "type": "uint256"
        },
        {
          "internalType": "address",
          "name": "_token",
          "type": "address"
        },
        {
          "internalType": "address",
          "name": "_account",
          "type": "address"
        },
        {
          "internalType": "uint256",
          "name": "_amount",
          "type": "uint256"
        },
        {
          "internalType": "bytes32[]",
          "name": "_merkleProof",
          "type": "bytes32[]"
        }
      ],
      "name": "isPartOfMerkleTree",
      "outputs": [
        {
          "internalType": "bool",
          "name": "",
          "type": "bool"
        }
      ],
      "stateMutability": "view",
      "type": "function"
    },
    {
      "inputs": [],
      "name": "merkleVersion",
      "outputs": [
        {
          "internalType": "uint256",
          "name": "",
          "type": "uint256"
        }
      ],
      "stateMutability": "view",
      "type": "function"
    },
    {
      "inputs": [
        {
          "internalType": "uint256",
          "name": "",
          "type": "uint256"
        }
      ],
      "name": "merkleVersionMetadata",
      "outputs": [
        {
          "internalType": "bytes32",
          "name": "root",
          "type": "bytes32"
        },
        {
          "internalType": "string",
          "name": "dataIPFSHash",
          "type": "string"
        }
      ],
      "stateMutability": "view",
      "type": "function"
    },
    {
      "inputs": [],
      "name": "owner",
      "outputs": [
        {
          "internalType": "address",
          "name": "",
          "type": "address"
        }
      ],
      "stateMutability": "view",
      "type": "function"
    },
    {
      "inputs": [],
      "name": "pauseClaiming",
      "outputs": [],
      "stateMutability": "nonpayable",
      "type": "function"
    },
    {
      "inputs": [],
      "name": "paused",
      "outputs": [
        {
          "internalType": "bool",
          "name": "",
          "type": "bool"
        }
      ],
      "stateMutability": "view",
      "type": "function"
    },
    {
      "inputs": [],
      "name": "renounceOwnership",
      "outputs": [],
      "stateMutability": "nonpayable",
      "type": "function"
    },
    {
      "inputs": [
        {
          "internalType": "address",
          "name": "newOwner",
          "type": "address"
        }
      ],
      "name": "transferOwnership",
      "outputs": [],
      "stateMutability": "nonpayable",
      "type": "function"
    },
    {
      "inputs": [],
      "name": "unpauseClaiming",
      "outputs": [],
      "stateMutability": "nonpayable",
      "type": "function"
    },
    {
      "inputs": [
        {
          "components": [
            {
              "internalType": "bytes32",
              "name": "root",
              "type": "bytes32"
            },
            {
              "internalType": "string",
              "name": "dataIPFSHash",
              "type": "string"
            }
          ],
          "internalType": "struct MerkleVault.MerkleTreeMetadata",
          "name": "_metadata",
          "type": "tuple"
        }
      ],
      "name": "updateMerkleTree",
      "outputs": [],
      "stateMutability": "nonpayable",
      "type": "function"
    },
    {
      "stateMutability": "payable",
      "type": "receive"
    }
  ],
  "bytecode": "0x608060405234801561001057600080fd5b506000805460ff191690556001805561002833610035565b610030610087565b610123565b600280546001600160a01b038381166001600160a01b0319831681179093556040519116919082907f8be0079c531659141344cd1fd0a4f28419497f9722a3daafe3b4186f6b6457e090600090a35050565b60005460ff16156100d15760405162461bcd60e51b815260206004820152601060248201526f14185d5cd8589b194e881c185d5cd95960821b604482015260640160405180910390fd5b6000805460ff191660011790557f62e78cea01bee320cd4e420270b5ea74000d11b0c9f74754ebdbfc544b05a2586101063390565b6040516001600160a01b03909116815260200160405180910390a1565b611113806101326000396000f3fe6080604052600436106100ab5760003560e01c80638da5cb5b116100645780638da5cb5b146101cc578063aad2816e146101f4578063bf1b406114610209578063c4a2c6e61461022d578063c8be08a41461024d578063f2fde38b1461026d57600080fd5b80631f0ce4f5146100ea5780632e7ba6ef146101215780633ff8035b146101435780635c975abb14610158578063674a2a901461017c578063715018a6146101b757600080fd5b366100e5576040513481527f27f12abfe35860a9a927b465bb3d4a9c23c8428174b83f278fe45ed7b4da26629060200160405180910390a1005b600080fd5b3480156100f657600080fd5b5061010a610105366004610d71565b61028d565b604051610118929190610e9c565b60405180910390f35b34801561012d57600080fd5b5061014161013c366004610e02565b610332565b005b34801561014f57600080fd5b506101416106a6565b34801561016457600080fd5b5060005460ff165b6040519015158152602001610118565b34801561018857600080fd5b5061016c610197366004610cea565b600560209081526000928352604080842090915290825290205460ff1681565b3480156101c357600080fd5b506101416106da565b3480156101d857600080fd5b506002546040516001600160a01b039091168152602001610118565b34801561020057600080fd5b5061014161070e565b34801561021557600080fd5b5061021f60035481565b604051908152602001610118565b34801561023957600080fd5b50610141610248366004610d36565b610740565b34801561025957600080fd5b5061016c610268366004610d8a565b6107c7565b34801561027957600080fd5b50610141610288366004610cc8565b610852565b600460205260009081526040902080546001820180549192916102af90611045565b80601f01602080910402602001604051908101604052809291908181526020018280546102db90611045565b80156103285780601f106102fd57610100808354040283529160200191610328565b820191906000526020600020905b81548152906001019060200180831161030b57829003601f168201915b5050505050905082565b60005460ff161561037d5760405162461bcd60e51b815260206004820152601060248201526f14185d5cd8589b194e881c185d5cd95960821b60448201526064015b60405180910390fd5b600260015414156103d05760405162461bcd60e51b815260206004820152601f60248201527f5265656e7472616e637947756172643a207265656e7472616e742063616c6c006044820152606401610374565b6002600155336000908152600560209081526040808320600354845290915290205460ff16156104425760405162461bcd60e51b815260206004820152601760248201527f46756e64732068617665206265656e20636c61696d65640000000000000000006044820152606401610374565b60008585338660405160200161045b9493929190610e6a565b6040516020818303038152906040528051906020012090506104c0838380806020026020016040519081016040528093929190818152602001838360200280828437600092018290525060035481526004602052604090205492508591506108ea9050565b61050c5760405162461bcd60e51b815260206004820152601a60248201527f4d65726b6c6520766572696669636174696f6e206661696c65640000000000006044820152606401610374565b33600090815260056020908152604080832060035484529091529020805460ff191660011790556001600160a01b0385166105d557604051600090339086908381818185875af1925050503d8060008114610583576040519150601f19603f3d011682016040523d82523d6000602084013e610588565b606091505b50509050806105cf5760405162461bcd60e51b8152602060048201526013602482015272115512081d1c985b9cd9995c8819985a5b1959606a1b6044820152606401610374565b50610657565b60405163a9059cbb60e01b8152336004820152602481018590526001600160a01b0386169063a9059cbb90604401602060405180830381600087803b15801561061d57600080fd5b505af1158015610631573d6000803e3d6000fd5b505050506040513d601f19601f820116820180604052508101906106559190610d14565b505b846001600160a01b03167f896e034966eaaf1adc54acc0f257056febbd300c9e47182cf761982cf1f5e4308560405161069291815260200190565b60405180910390a250506001805550505050565b6002546001600160a01b031633146106d05760405162461bcd60e51b815260040161037490610ef9565b6106d8610999565b565b6002546001600160a01b031633146107045760405162461bcd60e51b815260040161037490610ef9565b6106d86000610a2c565b6002546001600160a01b031633146107385760405162461bcd60e51b815260040161037490610ef9565b6106d8610a7e565b60005460ff166107895760405162461bcd60e51b815260206004820152601460248201527314185d5cd8589b194e881b9bdd081c185d5cd95960621b6044820152606401610374565b6002546001600160a01b031633146107b35760405162461bcd60e51b815260040161037490610ef9565b6107c46107bf82610fa0565b610af9565b50565b600080878787876040516020016107e19493929190610e6a565b604051602081830303815290604052805190602001209050610846848480806020026020016040519081016040528093929190818152602001838360200280828437600092018290525060035481526004602052604090205492508591506108ea9050565b98975050505050505050565b6002546001600160a01b0316331461087c5760405162461bcd60e51b815260040161037490610ef9565b6001600160a01b0381166108e15760405162461bcd60e51b815260206004820152602660248201527f4f776e61626c653a206e6577206f776e657220697320746865207a65726f206160448201526564647265737360d01b6064820152608401610374565b6107c481610a2c565b600081815b855181101561098e57600086828151811061090c5761090c6110b1565b6020026020010151905080831161094e57604080516020810185905290810182905260600160405160208183030381529060405280519060200120925061097b565b60408051602081018390529081018490526060016040516020818303038152906040528051906020012092505b508061098681611080565b9150506108ef565b509092149392505050565b60005460ff166109e25760405162461bcd60e51b815260206004820152601460248201527314185d5cd8589b194e881b9bdd081c185d5cd95960621b6044820152606401610374565b6000805460ff191690557f5db9ee0a495bf2e6ff9c91a7834c1ba4fdd244a5e8aa4e537bd38aeae4b073aa335b6040516001600160a01b03909116815260200160405180910390a1565b600280546001600160a01b038381166001600160a01b0319831681179093556040519116919082907f8be0079c531659141344cd1fd0a4f28419497f9722a3daafe3b4186f6b6457e090600090a35050565b60005460ff1615610ac45760405162461bcd60e51b815260206004820152601060248201526f14185d5cd8589b194e881c185d5cd95960821b6044820152606401610374565b6000805460ff191660011790557f62e78cea01bee320cd4e420270b5ea74000d11b0c9f74754ebdbfc544b05a258610a0f3390565b806020015151602e14610b425760405162461bcd60e51b8152602060048201526011602482015270092dcecc2d8d2c84092a08ca640d0c2e6d607b1b6044820152606401610374565b600160036000828254610b559190610f88565b90915550506003546000908152600460209081526040909120825181558183015180518493610b8b926001850192910190610bc7565b50506003546040519081527f9766c3487f5c2ad5ced50186b0779a29a18050da711df3e4210ba434b1ed3726915060200160405180910390a150565b828054610bd390611045565b90600052602060002090601f016020900481019282610bf55760008555610c3b565b82601f10610c0e57805160ff1916838001178555610c3b565b82800160010185558215610c3b579182015b82811115610c3b578251825591602001919060010190610c20565b50610c47929150610c4b565b5090565b5b80821115610c475760008155600101610c4c565b80356001600160a01b0381168114610c7757600080fd5b919050565b60008083601f840112610c8e57600080fd5b50813567ffffffffffffffff811115610ca657600080fd5b6020830191508360208260051b8501011115610cc157600080fd5b9250929050565b600060208284031215610cda57600080fd5b610ce382610c60565b9392505050565b60008060408385031215610cfd57600080fd5b610d0683610c60565b946020939093013593505050565b600060208284031215610d2657600080fd5b81518015158114610ce357600080fd5b600060208284031215610d4857600080fd5b813567ffffffffffffffff811115610d5f57600080fd5b820160408185031215610ce357600080fd5b600060208284031215610d8357600080fd5b5035919050565b60008060008060008060a08789031215610da357600080fd5b86359550610db360208801610c60565b9450610dc160408801610c60565b935060608701359250608087013567ffffffffffffffff811115610de457600080fd5b610df089828a01610c7c565b979a9699509497509295939492505050565b600080600080600060808688031215610e1a57600080fd5b85359450610e2a60208701610c60565b935060408601359250606086013567ffffffffffffffff811115610e4d57600080fd5b610e5988828901610c7c565b969995985093965092949392505050565b9384526bffffffffffffffffffffffff19606093841b811660208601529190921b166034830152604882015260680190565b82815260006020604081840152835180604085015260005b81811015610ed057858101830151858201606001528201610eb4565b81811115610ee2576000606083870101525b50601f01601f191692909201606001949350505050565b6020808252818101527f4f776e61626c653a2063616c6c6572206973206e6f7420746865206f776e6572604082015260600190565b6040805190810167ffffffffffffffff81118282101715610f5157610f516110c7565b60405290565b604051601f8201601f1916810167ffffffffffffffff81118282101715610f8057610f806110c7565b604052919050565b60008219821115610f9b57610f9b61109b565b500190565b600060408236031215610fb257600080fd5b610fba610f2e565b8235815260208084013567ffffffffffffffff80821115610fda57600080fd5b9085019036601f830112610fed57600080fd5b813581811115610fff57610fff6110c7565b611011601f8201601f19168501610f57565b9150808252368482850101111561102757600080fd5b80848401858401376000908201840152918301919091525092915050565b600181811c9082168061105957607f821691505b6020821081141561107a57634e487b7160e01b600052602260045260246000fd5b50919050565b60006000198214156110945761109461109b565b5060010190565b634e487b7160e01b600052601160045260246000fd5b634e487b7160e01b600052603260045260246000fd5b634e487b7160e01b600052604160045260246000fdfea2646970667358221220bc769445507b4a65fbe72abbbc8fbb4672305b4c9a60eda0f05a7f5d2b05e1ee64736f6c63430008060033",
  "linkReferences": {},
  "deployedLinkReferences": {}
}