{
  "_format": "hh-sol-artifact-1",
  "contractName": "MerkleVault",
  "sourceName": "contracts/MerkleVault.sol",
  "abi": [
    {
      "inputs": [],
      "stateMutability": "nonpayable",
      "type": "constructor"
    },
    {
      "anonymous": false,
      "inputs": [
        {
          "indexed": false,
          "internalType": "uint256",
          "name": "amount",
          "type": "uint256"
        }
      ],
      "name": "ETHReceived",
      "type": "event"
    },
    {
      "anonymous": false,
      "inputs": [
        {
          "indexed": false,
          "internalType": "uint256",
          "name": "newVersion",
          "type": "uint256"
        }
      ],
      "name": "MerkleTreeUpdated",
      "type": "event"
    },
    {
      "anonymous": false,
      "inputs": [
        {
          "indexed": true,
          "internalType": "address",
          "name": "previousOwner",
          "type": "address"
        },
        {
          "indexed": true,
          "internalType": "address",
          "name": "newOwner",
          "type": "address"
        }
      ],
      "name": "OwnershipTransferred",
      "type": "event"
    },
    {
      "anonymous": false,
      "inputs": [
        {
          "indexed": false,
          "internalType": "address",
          "name": "account",
          "type": "address"
        }
      ],
      "name": "Paused",
      "type": "event"
    },
    {
      "anonymous": false,
      "inputs": [
        {
          "indexed": true,
          "internalType": "address",
          "name": "token",
          "type": "address"
        },
        {
          "indexed": false,
          "internalType": "uint256",
          "name": "amount",
          "type": "uint256"
        }
      ],
      "name": "TokensClaimed",
      "type": "event"
    },
    {
      "anonymous": false,
      "inputs": [
        {
          "indexed": false,
          "internalType": "address",
          "name": "account",
          "type": "address"
        }
      ],
      "name": "Unpaused",
      "type": "event"
    },
    {
      "inputs": [
        {
          "internalType": "uint256",
          "name": "_index",
          "type": "uint256"
        },
        {
          "internalType": "address",
          "name": "_token",
          "type": "address"
        },
        {
          "internalType": "uint256",
          "name": "_amount",
          "type": "uint256"
        },
        {
          "internalType": "bytes32[]",
          "name": "_merkleProof",
          "type": "bytes32[]"
        }
      ],
      "name": "claim",
      "outputs": [],
      "stateMutability": "nonpayable",
      "type": "function"
    },
    {
      "inputs": [
        {
          "internalType": "uint256",
          "name": "_index",
          "type": "uint256"
        },
        {
          "internalType": "address",
          "name": "_token",
          "type": "address"
        },
        {
          "internalType": "uint256",
          "name": "_amount",
          "type": "uint256"
        },
        {
          "internalType": "address payable",
          "name": "_claimant",
          "type": "address"
        },
        {
          "internalType": "bytes32[]",
          "name": "_merkleProof",
          "type": "bytes32[]"
        }
      ],
      "name": "claimFor",
      "outputs": [],
      "stateMutability": "nonpayable",
      "type": "function"
    },
    {
      "inputs": [
        {
          "internalType": "address",
          "name": "",
          "type": "address"
        },
        {
          "internalType": "uint256",
          "name": "",
          "type": "uint256"
        }
      ],
      "name": "fundsClaimed",
      "outputs": [
        {
          "internalType": "bool",
          "name": "",
          "type": "bool"
        }
      ],
      "stateMutability": "view",
      "type": "function"
    },
    {
      "inputs": [
        {
          "internalType": "uint256",
          "name": "_index",
          "type": "uint256"
        },
        {
          "internalType": "address",
          "name": "_token",
          "type": "address"
        },
        {
          "internalType": "address",
          "name": "_account",
          "type": "address"
        },
        {
          "internalType": "uint256",
          "name": "_amount",
          "type": "uint256"
        },
        {
          "internalType": "bytes32[]",
          "name": "_merkleProof",
          "type": "bytes32[]"
        }
      ],
      "name": "isPartOfMerkleTree",
      "outputs": [
        {
          "internalType": "bool",
          "name": "",
          "type": "bool"
        }
      ],
      "stateMutability": "view",
      "type": "function"
    },
    {
      "inputs": [],
      "name": "merkleVersion",
      "outputs": [
        {
          "internalType": "uint256",
          "name": "",
          "type": "uint256"
        }
      ],
      "stateMutability": "view",
      "type": "function"
    },
    {
      "inputs": [
        {
          "internalType": "uint256",
          "name": "",
          "type": "uint256"
        }
      ],
      "name": "merkleVersionMetadata",
      "outputs": [
        {
          "internalType": "bytes32",
          "name": "root",
          "type": "bytes32"
        },
        {
          "internalType": "string",
          "name": "dataIPFSHash",
          "type": "string"
        }
      ],
      "stateMutability": "view",
      "type": "function"
    },
    {
      "inputs": [],
      "name": "owner",
      "outputs": [
        {
          "internalType": "address",
          "name": "",
          "type": "address"
        }
      ],
      "stateMutability": "view",
      "type": "function"
    },
    {
      "inputs": [],
      "name": "pauseClaiming",
      "outputs": [],
      "stateMutability": "nonpayable",
      "type": "function"
    },
    {
      "inputs": [],
      "name": "paused",
      "outputs": [
        {
          "internalType": "bool",
          "name": "",
          "type": "bool"
        }
      ],
      "stateMutability": "view",
      "type": "function"
    },
    {
      "inputs": [],
      "name": "renounceOwnership",
      "outputs": [],
      "stateMutability": "nonpayable",
      "type": "function"
    },
    {
      "inputs": [
        {
          "internalType": "address",
          "name": "newOwner",
          "type": "address"
        }
      ],
      "name": "transferOwnership",
      "outputs": [],
      "stateMutability": "nonpayable",
      "type": "function"
    },
    {
      "inputs": [],
      "name": "unpauseClaiming",
      "outputs": [],
      "stateMutability": "nonpayable",
      "type": "function"
    },
    {
      "inputs": [
        {
          "components": [
            {
              "internalType": "bytes32",
              "name": "root",
              "type": "bytes32"
            },
            {
              "internalType": "string",
              "name": "dataIPFSHash",
              "type": "string"
            }
          ],
          "internalType": "struct MerkleVault.MerkleTreeMetadata",
          "name": "_metadata",
          "type": "tuple"
        }
      ],
      "name": "updateMerkleTree",
      "outputs": [],
      "stateMutability": "nonpayable",
      "type": "function"
    },
    {
      "stateMutability": "payable",
      "type": "receive"
    }
  ],
  "bytecode": "0x608060405234801561001057600080fd5b506000805460ff191690556001805561002833610035565b610030610087565b610123565b600280546001600160a01b038381166001600160a01b0319831681179093556040519116919082907f8be0079c531659141344cd1fd0a4f28419497f9722a3daafe3b4186f6b6457e090600090a35050565b60005460ff16156100d15760405162461bcd60e51b815260206004820152601060248201526f14185d5cd8589b194e881c185d5cd95960821b604482015260640160405180910390fd5b6000805460ff191660011790557f62e78cea01bee320cd4e420270b5ea74000d11b0c9f74754ebdbfc544b05a2586101063390565b6040516001600160a01b03909116815260200160405180910390a1565b61125a806101326000396000f3fe6080604052600436106100c65760003560e01c80638da5cb5b1161007f578063bf1b406111610059578063bf1b406114610244578063c4a2c6e614610268578063c8be08a414610288578063f2fde38b146102a857600080fd5b80638da5cb5b146101e75780638de20b941461020f578063aad2816e1461022f57600080fd5b80631f0ce4f5146101055780632e7ba6ef1461013c5780633ff8035b1461015e5780635c975abb14610173578063674a2a9014610197578063715018a6146101d257600080fd5b36610100576040513481527f27f12abfe35860a9a927b465bb3d4a9c23c8428174b83f278fe45ed7b4da26629060200160405180910390a1005b600080fd5b34801561011157600080fd5b50610125610120366004610e15565b6102c8565b604051610133929190610fa4565b60405180910390f35b34801561014857600080fd5b5061015c610157366004610f08565b61036d565b005b34801561016a57600080fd5b5061015c61040a565b34801561017f57600080fd5b5060005460ff165b6040519015158152602001610133565b3480156101a357600080fd5b506101876101b2366004610d8c565b600560209081526000928352604080842090915290825290205460ff1681565b3480156101de57600080fd5b5061015c61043e565b3480156101f357600080fd5b506002546040516001600160a01b039091168152602001610133565b34801561021b57600080fd5b5061015c61022a366004610eaa565b610472565b34801561023b57600080fd5b5061015c610507565b34801561025057600080fd5b5061025a60035481565b604051908152602001610133565b34801561027457600080fd5b5061015c610283366004610dda565b610539565b34801561029457600080fd5b506101876102a3366004610e2e565b6105c0565b3480156102b457600080fd5b5061015c6102c3366004610d68565b61064b565b600460205260009081526040902080546001820180549192916102ea90611177565b80601f016020809104026020016040519081016040528092919081815260200182805461031690611177565b80156103635780601f1061033857610100808354040283529160200191610363565b820191906000526020600020905b81548152906001019060200180831161034657829003601f168201915b5050505050905082565b60005460ff16156103995760405162461bcd60e51b815260040161039090611001565b60405180910390fd5b600260015414156103ec5760405162461bcd60e51b815260206004820152601f60248201527f5265656e7472616e637947756172643a207265656e7472616e742063616c6c006044820152606401610390565b60026001556103ff8585853386866106e3565b505060018055505050565b6002546001600160a01b031633146104345760405162461bcd60e51b81526004016103909061102b565b61043c6109c9565b565b6002546001600160a01b031633146104685760405162461bcd60e51b81526004016103909061102b565b61043c6000610a5c565b60005460ff16156104955760405162461bcd60e51b815260040161039090611001565b600260015414156104e85760405162461bcd60e51b815260206004820152601f60248201527f5265656e7472616e637947756172643a207265656e7472616e742063616c6c006044820152606401610390565b60026001556104fb8686868686866106e3565b50506001805550505050565b6002546001600160a01b031633146105315760405162461bcd60e51b81526004016103909061102b565b61043c610aae565b60005460ff166105825760405162461bcd60e51b815260206004820152601460248201527314185d5cd8589b194e881b9bdd081c185d5cd95960621b6044820152606401610390565b6002546001600160a01b031633146105ac5760405162461bcd60e51b81526004016103909061102b565b6105bd6105b8826110d2565b610b06565b50565b600080878787876040516020016105da9493929190610f72565b60405160208183030381529060405280519060200120905061063f84848080602002602001604051908101604052809392919081815260200183836020028082843760009201829052506003548152600460205260409020549250859150610bd49050565b98975050505050505050565b6002546001600160a01b031633146106755760405162461bcd60e51b81526004016103909061102b565b6001600160a01b0381166106da5760405162461bcd60e51b815260206004820152602660248201527f4f776e61626c653a206e6577206f776e657220697320746865207a65726f206160448201526564647265737360d01b6064820152608401610390565b6105bd81610a5c565b6001600160a01b0383166000908152600560209081526040808320600354845290915290205460ff16156107595760405162461bcd60e51b815260206004820152601760248201527f46756e64732068617665206265656e20636c61696d65640000000000000000006044820152606401610390565b6000868685876040516020016107729493929190610f72565b6040516020818303038152906040528051906020012090506107d783838080602002602001604051908101604052809392919081815260200183836020028082843760009201829052506003548152600460205260409020549250859150610bd49050565b6108235760405162461bcd60e51b815260206004820152601a60248201527f4d65726b6c6520766572696669636174696f6e206661696c65640000000000006044820152606401610390565b6001600160a01b03808516600090815260056020908152604080832060035484529091529020805460ff1916600117905586166108f9576000846001600160a01b03168660405160006040518083038185875af1925050503d80600081146108a7576040519150601f19603f3d011682016040523d82523d6000602084013e6108ac565b606091505b50509050806108f35760405162461bcd60e51b8152602060048201526013602482015272115512081d1c985b9cd9995c8819985a5b1959606a1b6044820152606401610390565b5061097d565b60405163a9059cbb60e01b81526001600160a01b0385811660048301526024820187905287169063a9059cbb90604401602060405180830381600087803b15801561094357600080fd5b505af1158015610957573d6000803e3d6000fd5b505050506040513d601f19601f8201168201806040525081019061097b9190610db8565b505b856001600160a01b03167f896e034966eaaf1adc54acc0f257056febbd300c9e47182cf761982cf1f5e430866040516109b891815260200190565b60405180910390a250505050505050565b60005460ff16610a125760405162461bcd60e51b815260206004820152601460248201527314185d5cd8589b194e881b9bdd081c185d5cd95960621b6044820152606401610390565b6000805460ff191690557f5db9ee0a495bf2e6ff9c91a7834c1ba4fdd244a5e8aa4e537bd38aeae4b073aa335b6040516001600160a01b03909116815260200160405180910390a1565b600280546001600160a01b038381166001600160a01b0319831681179093556040519116919082907f8be0079c531659141344cd1fd0a4f28419497f9722a3daafe3b4186f6b6457e090600090a35050565b60005460ff1615610ad15760405162461bcd60e51b815260040161039090611001565b6000805460ff191660011790557f62e78cea01bee320cd4e420270b5ea74000d11b0c9f74754ebdbfc544b05a258610a3f3390565b806020015151602e14610b4f5760405162461bcd60e51b8152602060048201526011602482015270092dcecc2d8d2c84092a08ca640d0c2e6d607b1b6044820152606401610390565b600160036000828254610b6291906110ba565b90915550506003546000908152600460209081526040909120825181558183015180518493610b98926001850192910190610c83565b50506003546040519081527f9766c3487f5c2ad5ced50186b0779a29a18050da711df3e4210ba434b1ed3726915060200160405180910390a150565b600081815b8551811015610c78576000868281518110610bf657610bf66111e3565b60200260200101519050808311610c38576040805160208101859052908101829052606001604051602081830303815290604052805190602001209250610c65565b60408051602081018390529081018490526060016040516020818303038152906040528051906020012092505b5080610c70816111b2565b915050610bd9565b509092149392505050565b828054610c8f90611177565b90600052602060002090601f016020900481019282610cb15760008555610cf7565b82601f10610cca57805160ff1916838001178555610cf7565b82800160010185558215610cf7579182015b82811115610cf7578251825591602001919060010190610cdc565b50610d03929150610d07565b5090565b5b80821115610d035760008155600101610d08565b60008083601f840112610d2e57600080fd5b50813567ffffffffffffffff811115610d4657600080fd5b6020830191508360208260051b8501011115610d6157600080fd5b9250929050565b600060208284031215610d7a57600080fd5b8135610d858161120f565b9392505050565b60008060408385031215610d9f57600080fd5b8235610daa8161120f565b946020939093013593505050565b600060208284031215610dca57600080fd5b81518015158114610d8557600080fd5b600060208284031215610dec57600080fd5b813567ffffffffffffffff811115610e0357600080fd5b820160408185031215610d8557600080fd5b600060208284031215610e2757600080fd5b5035919050565b60008060008060008060a08789031215610e4757600080fd5b863595506020870135610e598161120f565b94506040870135610e698161120f565b935060608701359250608087013567ffffffffffffffff811115610e8c57600080fd5b610e9889828a01610d1c565b979a9699509497509295939492505050565b60008060008060008060a08789031215610ec357600080fd5b863595506020870135610ed58161120f565b9450604087013593506060870135610eec8161120f565b9250608087013567ffffffffffffffff811115610e8c57600080fd5b600080600080600060808688031215610f2057600080fd5b853594506020860135610f328161120f565b935060408601359250606086013567ffffffffffffffff811115610f5557600080fd5b610f6188828901610d1c565b969995985093965092949392505050565b9384526bffffffffffffffffffffffff19606093841b811660208601529190921b166034830152604882015260680190565b82815260006020604081840152835180604085015260005b81811015610fd857858101830151858201606001528201610fbc565b81811115610fea576000606083870101525b50601f01601f191692909201606001949350505050565b60208082526010908201526f14185d5cd8589b194e881c185d5cd95960821b604082015260600190565b6020808252818101527f4f776e61626c653a2063616c6c6572206973206e6f7420746865206f776e6572604082015260600190565b6040805190810167ffffffffffffffff81118282101715611083576110836111f9565b60405290565b604051601f8201601f1916810167ffffffffffffffff811182821017156110b2576110b26111f9565b604052919050565b600082198211156110cd576110cd6111cd565b500190565b6000604082360312156110e457600080fd5b6110ec611060565b8235815260208084013567ffffffffffffffff8082111561110c57600080fd5b9085019036601f83011261111f57600080fd5b813581811115611131576111316111f9565b611143601f8201601f19168501611089565b9150808252368482850101111561115957600080fd5b80848401858401376000908201840152918301919091525092915050565b600181811c9082168061118b57607f821691505b602082108114156111ac57634e487b7160e01b600052602260045260246000fd5b50919050565b60006000198214156111c6576111c66111cd565b5060010190565b634e487b7160e01b600052601160045260246000fd5b634e487b7160e01b600052603260045260246000fd5b634e487b7160e01b600052604160045260246000fd5b6001600160a01b03811681146105bd57600080fdfea2646970667358221220c1bc478db59f9bc9900f337a4498d8ac0477247b63fdb98516280f95d595fe6b64736f6c63430008060033",
  "linkReferences": {},
  "deployedLinkReferences": {}
}